:020000040000FA
:100000000C94F5000C941D010C941D010C941D0121
:100010000C941D010C941D010C941D010C941D01E8
:100020000C941D010C941D010C941D010C941D01D8
:100030000C941D010C941D010C941D010C941D01C8
:100040000C94E3060C941D010C94B1060C948B06E1
:100050000C941D010C941D010C941D010C941D01A8
:100060000C942D070C941D01204C4C45202D204153
:1000700070616761646F2064652056616C76756C91
:10008000612E00204C4C45202D20456E63656E642A
:1000900069646F2064652056616C76756C612E0012
:1000A00020564143202D204170616761646F2064B8
:1000B0006520626F6D62612E00000000002500283F
:1000C000002B000000000023002600290000000093
:1000D0000800020100000304070000000000000007
:1000E0000020496E696369616C697A616E646F2092
:1000F0004465706F7369746F2E0020564143202D44
:1001000020456E63656E6469646F20646520626F6C
:100110006D62612E0020537570657261646F20748A
:1001200069656D706F206D6178696D6F2064652001
:10013000626F6D62656F2E0020456E63656E646947
:10014000656E646F20626F6D6261207920636F6DF0
:1001500070726F62616E646F206E6976656C206D7F
:10016000696E696D6F2E002041706167616E646F0A
:100170002076616C76756C612E0020456A6563752A
:1001800074616E646F20436F6E74726F6C20657261
:10019000726F72204465706F7369746F2E00204512
:1001A0006A65637574616E646F20436F6E74726FFD
:1001B0006C206465204465706F7369746F2E000451
:1001C00004040404040404020202020202030303FE
:1001D00003030301020408102040800102040810F8
:1001E00020010204081020004C0811241FBECFEF8C
:1001F000D8E0DEBFCDBF11E0A0E0B1E0EEE0F6E177
:1002000002C005900D92AE35B107D9F723E0AEE5F7
:10021000B1E001C01D92AD39B207E1F710E0C5EFC2
:10022000D0E004C02197FE010E94FF0AC43FD1071D
:10023000C9F70E9427090C94050B0C940000FC01DF
:10024000538D448D252F30E0842F90E0821B930B3B
:10025000541710F0CF96089501970895FC01918DE1
:10026000828D981761F0A28DAE0FBF2FB11D5D96E4
:100270008C91928D9F5F9F73928F90E008958FEF86
:100280009FEF0895FC01918D828D981731F0828D3A
:10029000E80FF11D858D90E008958FEF9FEF089591
:1002A000FC01918D228D892F90E0805C9F4F821BF5
:1002B00091098F7399270895FC01A48DA80FB92F78
:1002C000B11DA35ABF4F2C91848D90E001968F737E
:1002D0009927848FA689B7892C93A089B1898C919D
:1002E000837080648C93938D848D981306C00288EC
:1002F000F389E02D80818F7D80830895EF92FF92B6
:100300000F931F93CF93DF93EC0181E0888F9B8D38
:100310008C8D98131AC0E889F989808185FF15C0F2
:100320009FB7F894EE89FF896083E889F989808115
:100330008370806480839FBF81E090E0DF91CF91E4
:100340001F910F91FF90EF900895F62E0B8D10E006
:100350000F5F1F4F0F731127E02E8C8D8E110CC075
:100360000FB607FCFACFE889F989808185FFF5CFC0
:10037000CE010E945C01F1CFEB8DEC0FFD2FF11D42
:10038000E35AFF4FF0829FB7F8940B8FEA89FB89FD
:1003900080818062CFCFCF93DF93EC01888D88235B
:1003A000B9F0AA89BB89E889F9898C9185FD03C0D8
:1003B000808186FD0DC00FB607FCF7CF8C9185FFBD
:1003C000F2CF808185FFEDCFCE010E945C01E9CFA5
:1003D000DF91CF91089589E192E00E94500121E0E0
:1003E000892B09F420E0822F089580E090E0892B8A
:1003F00029F00E94EB0181110C9400000895E09116
:100400001502F0911602309729F010921202109204
:10041000110209940895CF93DF93AC01E091170284
:10042000F09118023097F1F090911402809113022C
:100430009817C0F090E0292F30E02617370754F4C2
:10044000D901AC58BE4F240F351FE90128812C93E8
:100450009F5FF1CF1092140260931302CB01DF91E2
:10046000CF910994DF91CF910895AF92BF92CF922F
:10047000DF92EF92FF920F931F93CF93DF936C0164
:100480007B018B01040F151FEB015E01AE18BF0845
:10049000C017D10759F06991D601ED91FC910190F7
:1004A000F081E02DC6010995892B79F7C501DF910F
:1004B000CF911F910F91FF90EF90DF90CF90BF9061
:1004C000AF900895833081F028F4813099F0823024
:1004D000A9F008958730A9F08830C9F08430B1F4CC
:1004E000809180008F7D03C0809180008F77809302
:1004F0008000089584B58F7784BD089584B58F7D7D
:10050000FBCF8091B0008F778093B00008958091E9
:10051000B0008F7DF9CFCF93DF93282F30E0F90122
:10052000E353FF4F8491F901ED52FE4FD491F9014D
:10053000E154FE4FC491CC23A1F081110E946202CC
:10054000EC2FF0E0EE0FFF1FED53FF4FA591B4919C
:10055000EC91ED2381E090E009F480E0DF91CF9110
:10056000089580E090E0FACF1F93CF93DF93282F78
:1005700030E0F901E353FF4F8491F901ED52FE4F52
:10058000D491F901E154FE4FC491CC23A9F0162F68
:1005900081110E946202EC2FF0E0EE0FFF1FE75482
:1005A000FF4FA591B4918FB7F894EC91111108C049
:1005B000D095DE23DC938FBFDF91CF911F910895FB
:1005C000DE2BF8CF2FB7F8946091090270910A02E0
:1005D00080910B0290910C022FBF08952091BA01D7
:1005E000260F3327331F21323105ECF42091DE0131
:1005F000FC0190E080E0243069F082E00895A09151
:10060000BA012191AC0146565E4FA40FB52FB11D22
:100610002C930196861798F38091BA01680F609326
:10062000BA0180E0089581E008951092DE0181E032
:100630008093E0011092DF0161E082E10E94B40248
:1006400061E083E10E94B402E9EBF0E080818E7FFB
:10065000808380818D7F808388E48093B80085E4E7
:100660008093BC0008950895E091140280911302D4
:10067000E81730F4F0E0EC58FE4F808190E00895E8
:100680008FEF9FEF089590911402809113022FEF46
:100690003FEF981748F4E92FF0E0EC58FE4F208127
:1006A00030E09F5F90931402C901089586EB92E0B9
:1006B0000C9443038091130290911402891B990BAF
:1006C0000895CF93DF93CB01EA01642F0E94EE02DD
:1006D000CE01DF91CF9108954091000150E06EE589
:1006E00071E086EB92E00C946103CF93DF931F924D
:1006F000CDB7DEB7698361E0CE0101960E94EE02BC
:1007000081E090E00F90DF91CF91089590E080E03C
:1007100008954F925F926F927F928F929F92AF92C5
:10072000BF92CF92DF92EF92FF920F931F93CF93DE
:10073000DF934B015C018091610190916201A09176
:100740006301B091640188159905AA05BB0509F4F8
:10075000C6C08CE3C82ED12CE12CF12CC501A70119
:1007600096010E94C90A60936D01CA01B901A701EF
:1007700096010E94C90A60936E01C501B40120E18F
:100780003EE040E050E00E94C90ACA01B90128E1F8
:1007900030E040E050E00E94C90A60936F01C5015B
:1007A000B40120E831E541E050E00E94C90A690146
:1007B0007A01CA01B9016C5F7F4F8F4F9F4F27E0CD
:1007C00030E040E050E00E94C90A6F5F6093700122
:1007D000412C512C320140E004E610E0C0E9D1E0A8
:1007E000242F30E02E54384FF901E370FF27309763
:1007F000F9F4C901B8010E94B50A892B31F4C90185
:10080000BE010E94B50A892B99F48EE691E0A0E022
:10081000B0E0480E591E6A1E7B1ED301C201AA27F2
:10082000BB27C816D906EA06FB0638F04F5FD8CFBB
:100830008DE691E0A0E0B0E0ECCF40937301C901F8
:1008400064E670E00E94B50AEC01C90160E971E05C
:100850000E94B50A309721F42097D9F40097C9F087
:100860004DE651E060E070E0441A550A660A770AE6
:10087000C418D508E608F708A1E0B1E020E021306F
:1008800069F43097E9F5209711F40097C9F54DE127
:1008900006C04EE651E060E070E0E6CF4C9150E0DB
:1008A00070E060E031E0320FC416D506E606F706C8
:1008B00040F0C41AD50AE60AF70A1196232F3C30F5
:1008C000F1F62F5F20937201C394C0927101809260
:1008D000610190926201A0926301B0926401DF9184
:1008E000CF911F910F91FF90EF90DF90CF90BF902D
:1008F000AF909F908F907F906F905F904F900895F2
:100900004CE1CDCFFC0101900020E9F73197AF0118
:10091000481B590BBC0189E192E00C94350281E33C
:1009200091E00C9482040F931F93CF93DF938C017B
:10093000D0E0C0E0F801EC0FFD1F6491662341F0A8
:1009400089E192E00E947E01892B11F02196F2CF7D
:100950000E948F048C0F9D1FDF91CF911F910F91EB
:1009600008950C9482048F929F92AF92BF92CF927F
:10097000DF92EF92FF920F931F93CF93DF93CDB748
:10098000DEB7A1970FB6F894DEBF0FBECDBF6C01E6
:10099000990FEE08FF08F7FE41C06DE289E192E091
:1009A0000E947E018C0122273327A9012C193D09C1
:1009B0004E095F0919A2CE0181967C019AE0892E29
:1009C000912CA12CB12CCA01B901A50194010E945E
:1009D000C90A605DF70162937F0121153105410568
:1009E000510589F790E080E0309719F0CF010E941F
:1009F0008204800F911FA1960FB6F894DEBF0FBE40
:100A0000CDBFDF91CF911F910F91FF90EF90DF90BD
:100A1000CF90BF90AF909F908F900895A7019601BF
:100A200019A28E010F5D1F4F8AE0C82ED12CE12C38
:100A3000F12CCA01B901A70196010E94C90A605DA3
:100A4000F80162938F01211531054105510589F7A0
:100A500090E080E0309779F2CF010E948204CBCF02
:100A6000CF92DF92EF92FF920F931F930E94E202C8
:100A70000091690110916A0120916B0130916C0124
:100A8000C0906501D0906601E0906701F090680128
:100A9000AB01BC01401B510B620B730B483E534032
:100AA00061057105E0F08FEFC81AD80AE80AF80A64
:100AB000C0926501D0926601E0926701F0926801F0
:100AC000D901C80188519C4FAF4FBF4F8093690136
:100AD00090936A01A0936B01B0936C01C7CFC701DB
:100AE000B6010E9489038091710190E00E94B304D5
:100AF00084E391E00E94B104C701B6010E9489031A
:100B00008091720190E00E94B30484E391E00E941E
:100B1000B104C701B6010E9489038091730190E07E
:100B20008E54984F0E94B30489E491E00E94B1046E
:100B3000C701B6010E94890380916F0190E00E9475
:100B4000B30486E391E00E94B104C701B6010E949C
:100B5000890380916E0190E00E94B30486E391E0E6
:100B60000E94B104C701B6010E94890380916D0102
:100B700090E01F910F91FF90EF90DF90CF900C9439
:100B8000B3040E94300580EA90E00E94930460E084
:100B90008091FE020E94B4021092C50208950E9444
:100BA000300583E890E00E94930461E08091FC02AC
:100BB0000E94B40281E08093C60208950E9430052D
:100BC00088E690E00E94930460E08091FC020E941D
:100BD000B4021092C6020895809102030E948B0213
:100BE00021E0892B09F420E02093C4020E94300503
:100BF0008CE391E00E94B1048091C40290E00E94D5
:100C0000B30488E391E00E94B104809102039091C3
:100C100003030E94B3040E948F048091C4020895CC
:100C2000809100030E948B0221E0892B09F420E0CF
:100C30002093C3020E9430058FE491E00E94B1042A
:100C40008091C30290E00E94B3048BE491E00E9483
:100C5000B10480910003909101030E94B3040E94AB
:100C60008F048091C3020895CF93DF9385ED809325
:100C7000BC008091960190919701A0919801B0914C
:100C800099010796A11DB11D23E0B695A7959795EB
:100C900087952A95D1F72091BC0024FD03C01092BE
:100CA000DE0136C040919601509197016091980104
:100CB00070919901452B462B472B69F30097A105AD
:100CC000B10541F025E32A95F1F700000197A1094C
:100CD000B109E1CF8091950191E09093940188232F
:100CE000B9F0C091B800D091BA008091BC008A7B65
:100CF0008093BC0060E082E10E94B40260E083E186
:100D00000E94B4020E941503D093BA00C093B800A9
:100D1000DF91CF9108951F920F920FB60F92112479
:100D20002F933F934F935F936F937F938F939F93F3
:100D3000AF93BF93EF93FF9389E192E00E945C0130
:100D4000FF91EF91BF91AF919F918F917F916F91A3
:100D50005F914F913F912F910F900FBE0F901F9079
:100D600018951F920F920FB60F9211242F938F9305
:100D70009F93EF93FF93E0912902F0912A028081E3
:100D8000E0912F02F091300282FD1BC09081809192
:100D900032028F5F8F7320913302821741F0E0910E
:100DA0003202F0E0E75EFD4F958F80933202FF91B3
:100DB000EF919F918F912F910F900FBE0F901F90E9
:100DC00018958081F4CF1F920F920FB60F921124C5
:100DD0002F933F938F939F93AF93BF93809109027B
:100DE00090910A02A0910B02B0910C02309108027E
:100DF00023E0230F2D3758F50196A11DB11D209337
:100E000008028093090290930A02A0930B02B09308
:100E10000C028091040290910502A0910602B0910B
:100E200007020196A11DB11D809304029093050253
:100E3000A0930602B0930702BF91AF919F918F914B
:100E40003F912F910F900FBE0F901F90189526E89D
:100E5000230F0296A11DB11DD2CF1F920F920FB684
:100E60000F9211242F933F934F935F936F937F9330
:100E70008F939F93AF93BF93EF93FF938091B900AC
:100E8000887F803609F44AC0F0F5883209F4A7C09B
:100E900018F5803109F49BC0B8F4882309F4F9C02F
:100EA000883009F494C0FF91EF91BF91AF919F9169
:100EB0008F917F916F915F914F913F912F910F9003
:100EC0000FBE0F901F901895883109F488C08032AA
:100ED00051F78093DD0114C0803409F49DC040F4C3
:100EE0008033B9F38833F9F68093DD0185ECB0C027
:100EF000803509F485C0883509F496C0883499F6A0
:100F00000E943406D0CF883909F48CC038F5883770
:100F100029F050F4883611F0803729F683E0809369
:100F2000DE011092DC0157C0883809F47BC080399B
:100F300019F0803809F0B7CF8091DC01803208F0D9
:100F400071C0E091DC0181E08E0F8093DC01809123
:100F5000BB00F0E0E454FE4F80833DC0803B39F09D
:100F6000E0F4803A09F479C0883A09F09CCF84E033
:100F70008093DE011092BB011092BA01E0910F0242
:100F8000F091100209958091BA0181110FC081E0A2
:100F90008093BA0110929A0109C0803C09F4A6CF4F
:100FA000883C09F4A3CF883B09F07DCFE091BB01D9
:100FB00081E08E0F8093BB01F0E0E656FE4F80810A
:100FC0008093BB009091BB018091BA0129C08091B0
:100FD00003028093BB0085EC8093BC0064CF9091AA
:100FE000020280910102981758F5E091020281E017
:100FF0008E0F80930202F0E0EF51FE4F8081E9CF27
:10100000E091020281E08E0F809302028091BB008A
:10101000F0E0EF51FE4F8083909102028091010237
:101020009817C8F285E8D8CFE091020281E08E0FD0
:10103000809302028091BB00F0E0EF51FE4F80836D
:101040008091E00181115CCF81E08093DF0184EA2F
:101050008093BC001092DE0126CF85EC8093BC000B
:101060001092DE018091DC01803230F4E091DC01ED
:10107000F0E0E454FE4F10826091DC0170E0E091FA
:101080000D02F0910E028CEB91E009951092DC01BB
:101090000ACF1092DD0134CF0F931F93E9E1F2E004
:1010A0001382128288EE93E0A0E0B0E084839583FF
:1010B000A683B78321E131E03183208325EC30E042
:1010C0003587248724EC30E03787268720EC30E012
:1010D000318B208B21EC30E0338B228B22EC30E003
:1010E000358B248B26EC30E0378B268B118E128EBD
:1010F000138E148EE6EBF2E01382128284839583C2
:10110000A683B78383E291E091838083AFE5B3E068
:101110004AE015964C93159786E116968C93169790
:10112000EDEDF1E0E4911796EC931797E9ECF1E01F
:10113000E4911896EC93189700E81EE320E030E065
:101140001D960D931D932D933C93509798E05796C1
:101150009C93579758968C935897EBEDF1E0E49158
:101160005996EC935997E7ECF1E0E4915A96EC9399
:101170005A975F960D931D932D933C939297E6EEAD
:10118000F2E02AE030E0318F208F27E030E0378B2B
:10119000268B6CE070E0738F628F6BE070E0758F70
:1011A000648F40A781A792A783A7A2ECB2E040E199
:1011B00057E260E070E01C964D935D936D937C93D5
:1011C0001F9750964D935D936D937C935397358BFA
:1011D000248B84E090E0978F868F82E090E091A34B
:1011E00080A381E090E093A382A383E090E095A3A5
:1011F00084A386E090E097A386A311961C92119792
:1012000012961C92129713961C92139714961C9286
:1012100014971C9210923F031092400310924103C6
:1012200010924203E2E1F3E01082118212821382F3
:10123000148215821682178288E893E1A0E0B0E05C
:1012400080879187A287B3871F910F910895789423
:1012500084B5826084BD84B5816084BD85B58260BB
:1012600085BD85B5816085BD80916E00816080936C
:101270006E001092810080918100826080938100D5
:1012800080918100816080938100809180008160E5
:10129000809380008091B10084608093B100809140
:1012A000B00081608093B00080917A008460809368
:1012B0007A0080917A00826080937A0080917A002F
:1012C000816080937A0080917A00806880937A00B0
:1012D0001092C10010921402109213021092120286
:1012E000109211020E9415038FEF91E0909310026B
:1012F00080930F028BE092E090930E0280930D0298
:1013000080E18093BA008CE693E09093160280937C
:10131000150286E593E090931802809317020E94CD
:10132000300581EE90E00E94930410928B0310929E
:101330008C0310928D0310928E03C0E0D0E00E94C7
:1013400030058EE991E00E9493040E94E2026093CE
:101350008703709388038093890390938A03C090D6
:101360008B03D0908C03E0908D03F0908E036C196A
:101370007D098E099F09C0908F03D0909003E09063
:101380009103F09092036C157D058E059F0508F47E
:101390004FC00E9410060E94EC050E941006809328
:1013A00083030E94EC05809384030E9430058FE440
:1013B00091E00E94B1048091830390E00E94B30405
:1013C0008CE391E00E94B1048091840390E00E943C
:1013D000B3040E948F0480918303882309F4AAC078
:1013E00080918403882379F10E9430058FE491E095
:1013F0000E94B1048091830390E00E94B3048CE3C7
:1014000091E00E94B1048091840390E00E94B304B3
:101410000E948F040E94C1050E94DE050E94E20224
:1014200060938B0370938C0380938D0390938E0352
:10143000209709F484CF0E94EB01882309F47FCF21
:101440000E9400007CCF0E9430058FE491E00E9452
:10145000B1048091830390E00E94B3048CE391E097
:101460000E94B1048091840390E00E94B3040E9422
:101470008F040E9430058AE791E00E9493040E9445
:10148000E2026B017C0108EBC0160BE0D006E10420
:10149000F10420F28091C302882309F4BFCF809128
:1014A000C4028111BBCF0E94300587E691E00E9403
:1014B00093040E94DE050E94300588E391E00E94BB
:1014C00093040E9430058AEF90E00E94930461E04B
:1014D0008091FE020E94B40281E08093C5020E94C6
:1014E00010060E94EC050E94E20297018601061B8D
:1014F000170B280B390BB901A8018091CE029091EE
:10150000CF02A091D002B091D102880F991FAA1FDB
:10151000BB1F481759076A077B0738F00E94300540
:1015200085E191E00E94930479CF8091C4028111FA
:10153000C2CF74CF0E9430058FE491E00E94B104C5
:101540008091830390E00E94B3048CE391E00E94B9
:10155000B1048091840390E00E94B3040E948F0440
:101560000E94C1050E94CF0559CF97FB072E16F4A4
:10157000009407D077FD09D00E94EB0A07FC05D044
:101580003EF4909581959F4F0895709561957F4F9A
:101590000895A1E21A2EAA1BBB1BFD010DC0AA1FB4
:1015A000BB1FEE1FFF1FA217B307E407F50720F0CC
:1015B000A21BB30BE40BF50B661F771F881F991F47
:1015C0001A9469F760957095809590959B01AC0190
:1015D000BD01CF010895AA1BBB1B51E107C0AA1F83
:1015E000BB1FA617B70710F0A61BB70B881F991FC4
:1015F0005A95A9F780959095BC01CD010895EE0FFD
:10160000FF1F0590F491E02D0994F894FFCF011F7E
:101610001C1F1E1F1E1F1F1E1F1E1F000000007EFE
:101620000135021F01CB0150012E014201000000D3
:101630000075036103860333035A03430334030D28
:101640000A002F003A002050494E2053656E736FF8
:1016500072204D696E203A20002050494E2053657B
:0C1660006E736F72204D6178203A2000FC
:107E0000112484B714BE81FFF0D085E080938100F7
:107E100082E08093C00088E18093C10086E0809377
:107E2000C20080E18093C4008EE0C9D0259A86E02C
:107E300020E33CEF91E0309385002093840096BBD3
:107E4000B09BFECF1D9AA8958150A9F7CC24DD24C4
:107E500088248394B5E0AB2EA1E19A2EF3E0BF2EE7
:107E6000A2D0813461F49FD0082FAFD0023811F036
:107E7000013811F484E001C083E08DD089C08234E0
:107E800011F484E103C0853419F485E0A6D080C0E4
:107E9000853579F488D0E82EFF2485D0082F10E0AE
:107EA000102F00270E291F29000F111F8ED06801E7
:107EB0006FC0863521F484E090D080E0DECF843638
:107EC00009F040C070D06FD0082F6DD080E0C81688
:107ED00080E7D80618F4F601B7BEE895C0E0D1E017
:107EE00062D089930C17E1F7F0E0CF16F0E7DF06D8
:107EF00018F0F601B7BEE89568D007B600FCFDCFD4
:107F0000A601A0E0B1E02C9130E011968C91119780
:107F100090E0982F8827822B932B1296FA010C0160
:107F200087BEE89511244E5F5F4FF1E0A038BF0790
:107F300051F7F601A7BEE89507B600FCFDCF97BE46
:107F4000E89526C08437B1F42ED02DD0F82E2BD052
:107F50003CD0F601EF2C8F010F5F1F4F84911BD097
:107F6000EA94F801C1F70894C11CD11CFA94CF0C13
:107F7000D11C0EC0853739F428D08EE10CD085E9AC
:107F80000AD08FE07ACF813511F488E018D01DD067
:107F900080E101D065CF982F8091C00085FFFCCF94
:107FA0009093C60008958091C00087FFFCCF809118
:107FB000C00084FD01C0A8958091C6000895E0E648
:107FC000F0E098E1908380830895EDDF803219F02E
:107FD00088E0F5DFFFCF84E1DECF1F93182FE3DFCA
:107FE0001150E9F7F2DF1F91089580E0E8DFEE27F6
:047FF000FF270994CA
:027FFE00040479
:00000001FF
