:020000040000FA
:100000000C945D000C9485000C9485000C94850084
:100010000C9485000C9485000C9485000C9485004C
:100020000C9485000C9485000C9485000C9485003C
:100030000C9485000C9485000C9485000C9485002C
:100040000C94B1030C9485000C947F030C94590319
:100050000C9485000C9485000C9485000C9485000C
:100060000C94FB030C948500000000002500280080
:100070002B000000000023002600290004040404D3
:100080000404040402020202020203030303030342
:10009000010204081020408001020408102001021F
:1000A00004081020000000080002010000030407FB
:1000B00000000000000000001A0511241FBECFEF51
:1000C000D8E0DEBFCDBF11E0A0E0B1E0ECE1FDE0A3
:1000D00002C005900D92A632B107D9F722E0A6E240
:1000E000B1E001C01D92A53BB207E1F710E0CDE5FC
:1000F000D0E004C02197FE010E948606CC35D107CE
:10010000C9F70E9453050C948C060C940000FC0166
:10011000538D448D252F30E0842F90E0821B930B6C
:10012000541710F0CF96089501970895FC01918D12
:10013000828D981761F0A28DAE0FBF2FB11D5D9615
:100140008C91928D9F5F9F73928F90E008958FEFB7
:100150009FEF0895FC01918D828D981731F0828D6B
:10016000E80FF11D858D90E008958FEF9FEF0895C2
:10017000FC01918D228D892F90E0805C9F4F821B26
:1001800091098F7399270895FC01A48DA80FB92FA9
:10019000B11DA35ABF4F2C91848D90E001968F73AF
:1001A0009927848FA689B7892C93A089B1898C91CE
:1001B000837080648C93938D848D981306C002881D
:1001C000F389E02D80818F7D80830895EF92FF92E7
:1001D0000F931F93CF93DF93EC0181E0888F9B8D6A
:1001E0008C8D98131AC0E889F989808185FF15C024
:1001F0009FB7F894EE89FF896083E889F989808147
:100200008370806480839FBF81E090E0DF91CF9115
:100210001F910F91FF90EF900895F62E0B8D10E037
:100220000F5F1F4F0F731127E02E8C8D8E110CC0A6
:100230000FB607FCFACFE889F989808185FFF5CFF1
:10024000CE010E94C400F1CFEB8DEC0FFD2FF11D0C
:10025000E35AFF4FF0829FB7F8940B8FEA89FB892E
:1002600080818062CFCFCF93DF93EC01888D88238C
:10027000B9F0AA89BB89E889F9898C9185FD03C009
:10028000808186FD0DC00FB607FCF7CF8C9185FFEE
:10029000F2CF808185FFEDCFCE010E94C400E9CF6F
:1002A000DF91CF91089582EF91E00E94B80021E0A4
:1002B000892B09F420E0822F089580E090E0892BBB
:1002C00029F00E94530181110C9400000895E091DF
:1002D000C601F091C701309729F01092C301109226
:1002E000C20109940895CF93DF93AC01E091C80156
:1002F000F091C9013097F1F09091C5018091C4014E
:100300009817C0F090E0292F30E02617370754F4F3
:10031000D901A75DBE4F240F351FE90128812C9319
:100320009F5FF1CF1092C5016093C401CB01DF91B3
:10033000CF910994DF91CF910895AF92BF92CF9260
:10034000DF92EF92FF920F931F93CF93DF936C0195
:100350007B018B01040F151FEB015E01AE18BF0876
:10036000C017D10759F06991D601ED91FC91019028
:10037000F081E02DC6010995892B79F7C501DF9140
:10038000CF911F910F91FF90EF90DF90CF90BF9092
:10039000AF900895833081F028F4813099F0823055
:1003A000A9F008958730A9F08830C9F08430B1F4FD
:1003B000809180008F7D03C0809180008F77809333
:1003C0008000089584B58F7784BD089584B58F7DAE
:1003D000FBCF8091B0008F778093B000089580911B
:1003E000B0008F7DF9CFCF93DF93282F30E0F90154
:1003F000EC55FF4F8491F901E057FF4FD491F9017B
:10040000E458FF4FC491CC23A1F081110E94CA018E
:10041000EC2FF0E0EE0FFF1FEE58FF4FA591B491C7
:10042000EC91ED2381E090E009F480E0DF91CF9141
:10043000089580E090E0FACF1F93CF93DF93282FA9
:1004400030E0F901EC55FF4F8491F901E057FF4F7F
:10045000D491F901E458FF4FC491CC23A9F0162F91
:1004600081110E94CA01EC2FF0E0EE0FFF1FE85946
:10047000FF4FA591B4918FB7F894EC91111108C07A
:10048000D095DE23DC938FBFDF91CF911F9108952C
:10049000DE2BF8CF20916F01260F3327331F213237
:1004A0003105ECF420919301FC0190E080E02430D0
:1004B00069F082E00895A0916F012191AC01415B48
:1004C0005E4FA40FB52FB11D2C930196861798F39C
:1004D00080916F01680F60936F0180E0089581E063
:1004E00008951092930181E08093950110929401F8
:1004F00061E082E10E941C0261E083E10E941C0233
:10050000E9EBF0E080818E7F808380818D7F808326
:1005100088E48093B80085E48093BC000895089532
:10052000E091C5018091C401E81730F4F0E0E75D87
:10053000FE4F808190E008958FEF9FEF0895909196
:10054000C5018091C4012FEF3FEF981748F4E92FC0
:10055000F0E0E75DFE4F208130E09F5F9093C501A2
:10056000C90108958FE892E00C949F028091C40124
:100570009091C501891B990B0895CF93DF93CB010F
:10058000EA01642F0E944A02CE01DF91CF910895C3
:100590004091000150E066E271E08FE892E00C9437
:1005A000BD02CF93DF931F92CDB7DEB7698361E0C1
:1005B000CE0101960E944A0281E090E00F90DF9107
:1005C000CF91089590E080E0089560E080E00E947F
:1005D0001C021092CD01089580E00E94F30121E0F9
:1005E000892B09F420E02093CC01822F089580E02C
:1005F0000E94F30121E0892B09F420E02093CB0134
:10060000822F0895CF93DF9385ED8093BC00809176
:100610004B0190914C01A0914D01B0914E01079674
:10062000A11DB11D23E0B695A795979587952A95AD
:10063000D1F72091BC0024FD03C01092930136C075
:1006400040914B0150914C0160914D0170914E01D0
:10065000452B462B472B69F30097A105B10541F0C7
:1006600025E32A95F1F700000197A109B109E1CF2F
:1006700080914A0191E0909349018823B9F0C0919B
:10068000B800D091BA008091BC008A7B8093BC00F6
:1006900060E082E10E941C0260E083E10E941C0293
:1006A0000E947102D093BA00C093B800DF91CF913D
:1006B00008951F920F920FB60F9211242F933F931C
:1006C0004F935F936F937F938F939F93AF93BF935A
:1006D000EF93FF9382EF91E00E94C400FF91EF91AE
:1006E000BF91AF919F918F917F916F915F914F914A
:1006F0003F912F910F900FBE0F901F9018951F9252
:100700000F920FB60F9211242F938F939F93EF9315
:10071000FF93E0910202F09103028081E0910802D0
:10072000F091090282FD1BC0908180910B028F5FC6
:100730008F7320910C02821741F0E0910B02F0E0E0
:10074000EE50FE4F958F80930B02FF91EF919F919A
:100750008F912F910F900FBE0F901F901895808151
:10076000F4CF1F920F920FB60F9211242F933F9345
:100770008F939F93AF93BF938091EE019091EF0180
:10078000A091F001B091F1013091BD0123E0230F60
:100790002D3758F50196A11DB11D2093BD01809301
:1007A000EE019093EF01A093F001B093F1018091DD
:1007B000B9019091BA01A091BB01B091BC01019621
:1007C000A11DB11D8093B9019093BA01A093BB0103
:1007D000B093BC01BF91AF919F918F913F912F91A9
:1007E0000F900FBE0F901F90189526E8230F0296CA
:1007F000A11DB11DD2CF1F920F920FB60F921124DF
:100800002F933F934F935F936F937F938F939F9318
:10081000AF93BF93EF93FF938091B900887F8036A9
:1008200009F44AC0F0F5883209F4A7C018F5803100
:1008300009F49BC0B8F4882309F4F9C0883009F49E
:1008400094C0FF91EF91BF91AF919F918F917F9154
:100850006F915F914F913F912F910F900FBE0F902D
:100860001F901895883109F488C0803251F7809321
:10087000920114C0803409F49DC040F48033B9F370
:100880008833F9F68093920185ECB0C0803509F485
:1008900085C0883509F496C0883499F60E94020311
:1008A000D0CF883909F48CC038F5883729F050F456
:1008B000883611F0803729F683E0809393011092F7
:1008C000910157C0883809F47BC0803919F080380D
:1008D00009F0B7CF80919101803208F071C0E091AA
:1008E000910181E08E0F809391018091BB00F0E037
:1008F000EF58FE4F80833DC0803B39F0E0F4803AF2
:1009000009F479C0883A09F09CCF84E08093930180
:100910001092700110926F01E091C001F091C1013D
:10092000099580916F0181110FC081E080936F0163
:1009300010924F0109C0803C09F4A6CF883C09F40D
:10094000A3CF883B09F07DCFE091700181E08E0F4D
:1009500080937001F0E0E15BFE4F80818093BB00EB
:100960009091700180916F0129C08091B8018093AE
:10097000BB0085EC8093BC0064CF9091B70180915F
:10098000B601981758F5E091B70181E08E0F80937A
:10099000B701F0E0EA56FE4F8081E9CFE091B70160
:1009A00081E08E0F8093B7018091BB00F0E0EA56A2
:1009B000FE4F80839091B7018091B6019817C8F2DD
:1009C00085E8D8CFE091B70181E08E0F8093B70121
:1009D0008091BB00F0E0EA56FE4F80838091950144
:1009E00081115CCF81E08093940184EA8093BC0004
:1009F0001092930126CF85EC8093BC001092930156
:100A000080919101803230F4E0919101F0E0EF5853
:100A1000FE4F10826091910170E0E091BE01F09173
:100A2000BF0181E791E00995109291010ACF1092E0
:100A3000920134CFE2EFF1E01382128288EE93E06C
:100A4000A0E0B0E084839583A683B78325E031E0FE
:100A50003183208325EC30E03587248724EC30E097
:100A60003787268720EC30E0318B208B21EC30E07B
:100A7000338B228B22EC30E0358B248B26EC30E05C
:100A8000378B268B118E128E138E148EEFE8F2E0C8
:100A90001382128284839583A683B78387E191E0D2
:100AA000918380830895789484B5826084BD84B5F1
:100AB000816084BD85B5826085BD85B5816085BD59
:100AC00080916E00816080936E0010928100809111
:100AD0008100826080938100809181008160809399
:100AE0008100809180008160809380008091B100BE
:100AF00084608093B1008091B00081608093B000E9
:100B000080917A00846080937A0080917A0082607C
:100B100080937A0080917A00816080937A0080913E
:100B20007A00806880937A001092C1001092C5010B
:100B30001092C4011092C3011092C2010E9471026E
:100B400087E691E09093C1018093C00183E791E033
:100B50009093BF018093BE0180E18093BA0088EC3E
:100B600092E09093C7018093C60182EB92E090934C
:100B7000C9018093C8011092A3021092A40210929E
:100B8000A5021092A602C0E0D0E02FB7F8948091A1
:100B9000EE019091EF01A091F001B091F1012FBF12
:100BA00080939F029093A002A093A102B093A2020F
:100BB0004091A3025091A4026091A5027091A602F7
:100BC000841B950BA60BB70B4091A7025091A8026E
:100BD0006091A9027091AA0284179507A607B7072A
:100BE00070F10E94F7020E94EC020E94F7028093CB
:100BF0009B020E94EC0280939C0290919B0299239D
:100C000009F47AC0882331F10E94E50260E080E0B7
:100C10000E941C021092CE012FB7F8948091EE0131
:100C20009091EF01A091F001B091F1012FBF80935D
:100C3000A3029093A402A093A502B093A6022097CA
:100C400009F4A3CF0E945301882309F49ECF0E9488
:100C500000009BCF8FB7F894C090EE01D090EF01C9
:100C6000E090F001F090F1018FBF88EBC8168BE0A7
:100C7000D806E104F10480F28091CB01882361F26F
:100C80008091CC018111C8CF60E00E941C021092BB
:100C9000CE0161E080E00E941C0281E08093CD01E2
:100CA0000E94F7020E94EC022FB7F8948091EE01A7
:100CB0009091EF01A091F001B091F1012FBFB70128
:100CC000A601481B590B6A0B7B0B8091D6019091B2
:100CD000D701A091D801B091D901880F991FAA1FFF
:100CE000BB1F481759076A077B0708F095CF80910B
:100CF000CC018111CECF90CF0E94E50261E080E06F
:100D00000E941C0281E08093CE0186CFEE0FFF1F70
:100D10000590F491E02D0994F894FFCF01000000B4
:100D200000E6009D0187003301B8009600AA00008C
:100D3000000000D102BD02E2028F02B6029F0290C3
:020D40000200AF
:107E0000112484B714BE81FFF0D085E080938100F7
:107E100082E08093C00088E18093C10086E0809377
:107E2000C20080E18093C4008EE0C9D0259A86E02C
:107E300020E33CEF91E0309385002093840096BBD3
:107E4000B09BFECF1D9AA8958150A9F7CC24DD24C4
:107E500088248394B5E0AB2EA1E19A2EF3E0BF2EE7
:107E6000A2D0813461F49FD0082FAFD0023811F036
:107E7000013811F484E001C083E08DD089C08234E0
:107E800011F484E103C0853419F485E0A6D080C0E4
:107E9000853579F488D0E82EFF2485D0082F10E0AE
:107EA000102F00270E291F29000F111F8ED06801E7
:107EB0006FC0863521F484E090D080E0DECF843638
:107EC00009F040C070D06FD0082F6DD080E0C81688
:107ED00080E7D80618F4F601B7BEE895C0E0D1E017
:107EE00062D089930C17E1F7F0E0CF16F0E7DF06D8
:107EF00018F0F601B7BEE89568D007B600FCFDCFD4
:107F0000A601A0E0B1E02C9130E011968C91119780
:107F100090E0982F8827822B932B1296FA010C0160
:107F200087BEE89511244E5F5F4FF1E0A038BF0790
:107F300051F7F601A7BEE89507B600FCFDCF97BE46
:107F4000E89526C08437B1F42ED02DD0F82E2BD052
:107F50003CD0F601EF2C8F010F5F1F4F84911BD097
:107F6000EA94F801C1F70894C11CD11CFA94CF0C13
:107F7000D11C0EC0853739F428D08EE10CD085E9AC
:107F80000AD08FE07ACF813511F488E018D01DD067
:107F900080E101D065CF982F8091C00085FFFCCF94
:107FA0009093C60008958091C00087FFFCCF809118
:107FB000C00084FD01C0A8958091C6000895E0E648
:107FC000F0E098E1908380830895EDDF803219F02E
:107FD00088E0F5DFFFCF84E1DECF1F93182FE3DFCA
:107FE0001150E9F7F2DF1F91089580E0E8DFEE27F6
:047FF000FF270994CA
:027FFE00040479
:00000001FF
